:020000040800F2
:10000000E80A002049010008DF0A0008690A000820
:10001000DB0A00083F080008B516000800000000D1
:10002000000000000000000000000000191100089E
:100030004308000800000000310D00088D12000880
:100040006301000863010008630100086301000800
:1000500063010008630100086301000863010008F0
:1000600063010008630100086301000863010008E0
:1000700063010008630100086301000863010008D0
:1000800063010008630100086301000863010008C0
:1000900063010008630100086301000863010008B0
:1000A00063010008630100086301000863010008A0
:1000B0006301000863010008630100086301000890
:1000C0006301000863010008630100086301000880
:1000D0006301000863010008630100086301000870
:1000E0006301000863010008630100086301000860
:1000F0006301000863010008630100086301000850
:10010000630100086301000863010008630100083F
:10011000630100086301000863010008630100082F
:10012000630100086301000863010008630100081F
:10013000DFF810D000F046FB00480047752F00089C
:10014000AFF30080E80A00200648804706480047D1
:10015000FEE7FEE7FEE7FEE7FEE7FEE7FEE7FEE777
:10016000FEE7FEE79D1200083101000830B50446A5
:100170000020034600E05B1C934203D2E05CCD5CB0
:10018000401BF8D030BD30B480EA010202F00045D7
:1001900030F0004221F0004013D090B1C30DD40DD7
:1001A000C2F31601C0F31600E41A41F4000140F452
:1001B00000027D34914201D3641C00E04900002C10
:1001C00002DA30BC002070474FF400000023914257
:1001D00001D3891A034340084FEA4101F7D151B1D5
:1001E000914202D14FF0004105E002D24FF00101EF
:1001F00001E06FF0010103EBC450284430BC00F073
:1002000035BA2DE9FE4F804681EA0300C00F0C4647
:10021000009021F0004123F00045B8EB0200A94115
:1002200005D24046214690461C460B46024623F026
:100230000040104347D0270DC7F30A00C3F30A510B
:100240000290401A019040286BDAC3F3130040F487
:10025000801B0098924620B10023D2EB030A63EB87
:100260000B0B01985946C0F14002504600F0CDF901
:1002700006460D4650465946019A00F0E5F910EB46
:1002800008006141002487EA115284EAE7731A43A7
:1002900040D0009A62B3019A012A4FEA075215DC56
:1002A000001B61EB02014FF0004202EA0752CDE968
:1002B0000042001C41F5801132462B4600F01CFA2A
:1002C00003B0BDE8F08F40462146F9E7001B61EB23
:1002D0000201001C41F5801300185B412018A2F5B3
:1002E000001747EB030140EAD570B6196D4111E0E4
:1002F0006D084FEA360645EAC0754FEA0752001B03
:1003000061EB0201001C41F5801149084FEA300001
:100310000019514132462B4603B0BDE8F04F00F0C2
:10032000DCB90098012240000023D0EB020263EB0D
:10033000E073009821464FEAE074B8EB000061EBEF
:100340000401E9E783F000435BE781F0004158E7EF
:100350002DE9FE4F81EA030404F0004421F000413E
:1003600000944FF0000B23F0004350EA01045ED0EC
:1003700052EA03045BD0C3F30A54C1F30A552C4478
:10038000A4F2F3340194A0FB0254C1F3130141F42D
:100390008011C3F3130343F4801301FB024400FBF9
:1003A000034E840A970A44EA815447EA8357A4FB20
:1003B000076802958D0A05FB07854FEA932C04FB1D
:1003C0000C542705029D4FEA065847EA1637B5EB4D
:1003D00008056EEB070C870E920E47EA811742EA7A
:1003E0008312A7FB0201B6EB0B0164EB00042B0D9B
:1003F00043EA0C335E1844EB1C50DA465146E7FBE7
:100400000201C5F313044FEA0B3343EA14534FEAD6
:100410000432019C43EA0603A4F10C040294009CFC
:10042000CDE900B400F068F903B0BDE8F08F00201A
:100430000146F9E72DE9F04D81EA030404F0004B91
:1004400021F0004514464FF0000A23F0004150EA25
:10045000050220D054EA01021DD0C5F30A57024616
:10046000C5F31303C1F31300C1F30A5640F480151A
:1004700043F48013A7EB0608101BD64608F2FD389C
:1004800073EB050002D308F1010801E092185B410B
:10049000B8F1000F03DA00200146BDE8F08D00201E
:1004A0004FF48011064684460EE0171B73EB0507D8
:1004B00005D3121B63EB050306434CEA010C490804
:1004C0004FEA300092185B4150EA0107EDD152EA41
:1004D000030012D082EA040083EA0501084305D034
:1004E000101BAB4106D20122002306E000224FF090
:1004F000004302E06FF0010253101AEB06004CEBD0
:10050000085110EB0A0041EB0B01BDE8F04D00F083
:10051000E4B8C10F80EAE0700844CA0796230021BE
:1005200000F0ADB800F0004230F000400AD0C10D3C
:1005300001F56071C0F3160042EA0151C20840079C
:1005400011437047002001467047000030B5041E7B
:1005500071F1000404DB4FF00044404264EB010100
:10056000141E73F1000405DB1C464FF00043524299
:1005700063EB0403994208BF904230BD30B50B468F
:10058000014600202022012409E021FA02F59D42C3
:1005900005D303FA02F5491B04FA02F52844151E97
:1005A000A2F10102F1DC30BD2DE9F05F054600202B
:1005B00092469B4688460646814640241BE02846D4
:1005C00041464746224600F02FF853465A46C01A85
:1005D000914110D311461846224600F016F82D1A04
:1005E00067EB01084F4622460120002100F00DF87C
:1005F00017EB00094E41201EA4F10104DFDC484640
:1006000031462A464346BDE8F09F202A04DB203AC3
:1006100000FA02F1002070479140C2F1200320FA55
:1006200003F3194390407047202A04DB203A21FA53
:1006300002F00021704721FA02F3D040C2F12002FB
:100640009140084319467047202A06DBCB17203A11
:1006500041FA02F043EAE07306E041FA02F3D040C7
:10066000C2F1200291400843194670470029A8BFF3
:100670007047401C490008BF20F00100704710B4CB
:10068000B0FA80FC00FA0CF050EA010404BF10BC80
:10069000704749B1CCF1200421FA04F411FA0CF1AD
:1006A00018BF012121430843A3EB0C01CB1D4FEAE6
:1006B00000614FEA102042BF002010BC704700EBE1
:1006C000C35010440029A4BF10BC7047401C49000F
:1006D00008BF20F0010010BC704710B5141E73F164
:1006E000000408DA401C41F1000192185B411A43F2
:1006F00001D120F0010010BD2DE9F04D92469B463E
:1007000011B1B1FA81F202E0B0FA80F220329046E3
:10071000FFF77BFF04460F4640EA0A0041EA0B015F
:1007200053465A46084313D0114653EA010019D0E4
:10073000C8F140025046FFF777FF05460E46504687
:1007400059464246FFF761FF084305D0012004E007
:1007500020463946BDE8F08D0020054346EAE076A4
:100760002C4337430A986305E40AA0EB08000022F3
:10077000FD0A44EA47540A3002D500200146E9E761
:10078000010510196941DDE9084500196941BDE815
:10079000F04DA2E7C1F30A52C1F3130140F2FF3357
:1007A00041F480119A4202DA00200146704740F27B
:1007B00033439A42A2F2334202DC5242FFF734BF83
:1007C000FFF723BF064C074D06E0E06840F0010349
:1007D00094E8070098471034AC42F6D3FFF7ACFC1E
:1007E000304000085040000870B58C1810F8015BCC
:1007F00015F0070301D110F8013B2A1106D110F8BA
:10080000012B03E010F8016B01F8016B5B1EF9D1BD
:100810002B0705D40023521E0DD401F8013BFAE743
:1008200010F8013BCB1A921C03E013F8015B01F8AE
:10083000015B521EF9D5A142D8D3002070BD00BF84
:10084000FEE7704708B501217D2000F093FA4FF6CE
:10085000FF70ADF8000000208DF8030069461148D4
:1008600000F02AF86946104800F026F869460F485B
:1008700000F022F869460E4800F01EF869460D485F
:1008800000F01AF80E20ADF8000010208DF80300DB
:1008900003208DF802006946024800F00DF80020A0
:1008A00008BD000000080140000C0140001001409C
:1008B00000140140001801402DE9F04102460025D6
:1008C0000026002000230024002791F803C00CF02C
:1008D0000F0591F803C00CF0100CBCF1000F03D011
:1008E00091F802C04CEA050591F800C0BCF1000F78
:1008F00031D0146800202BE04FF0010C0CFA00F30B
:10090000B1F800C00CEA03069E4220D183004FF0EC
:100910000F0C0CFA03F7BC4305FA03FC4CEA040481
:1009200091F803C0BCF1280F06D14FF0010C0CFA6E
:1009300000FCC2F814C00AE091F803C0BCF1480FF3
:1009400005D14FF0010C0CFA00FCC2F810C0401C9D
:100950000828D1D31460B1F800C0BCF1FF0F34DD1A
:10096000546800202EE000F1080C4FF0010808FA4E
:100970000CF3B1F800C00CEA03069E4221D18300BB
:100980004FF00F0C0CFA03F7BC4305FA03FC4CEADA
:10099000040491F803C0BCF1280F05D100F1080C44
:1009A00008FA0CF8C2F8148091F803C0BCF1480FA3
:1009B00007D100F1080C4FF0010808FA0CF8C2F852
:1009C0001080401C0828CED35460BDE8F0810000A0
:1009D000F0B50A46002300240021002500F000465F
:1009E000B6F1004F02D11D4EF16901E01B4E716856
:1009F000C0F3034583B200F44016B6F5401F08D19A
:100A000021F07061154E766826F07066134F7E6097
:100A100012E000F48016B6F5801F06D1032606FA10
:100A200005F4A14341F0706106E0460D360103FA7A
:100A300006F6B14341F0706122B1460D360103FA6A
:100A400006F6314300F00046B6F1004F02D1034EE6
:100A5000F16101E0014E7160F0BD00000000014055
:100A6000416170470161704700BFFEE770B5022425
:100A700019E004F1B001C8B2002100F017F900211B
:100A8000084600F013F90021102000F00FF90025AE
:100A900005E00121002000F009F9681CC5B2872D8E
:100AA000F7DB601CC4B2082CE3DB70BD10B503207B
:100AB00002F03CFA642001F001FC032002F012FA7B
:100AC000642001F0FBFB032002F030FA642001F007
:100AD000F5FB032002F006FA10BD00BFFEE77047E9
:100AE00010B5002807DA0A07140E054A00F00F03B4
:100AF0001B1FD45403E00A07130E024A135410BDFF
:100B000018ED00E000E400E070B5002419E004F105
:100B1000B001C8B2002100F0C9F80021084600F079
:100B2000C5F80021102000F0C1F8002505E00121E2
:100B3000002000F0BBF8681CC5B2872DF7DB601CF5
:100B4000C4B2082CE3DB70BD38B50121082000F0E9
:100B500011F94FF43C40ADF8000010208DF803006F
:100B600003208DF8020069461748FFF7A5FE4FF4F1
:100B70003C411548FFF776FF4FF400611248FFF73C
:100B800071FF642001F09AFB4FF400610E48FFF7FB
:100B900067FFC82001F092FB4FF400610A48FFF79D
:100BA00061FF002406E00949085D002100F07EF89D
:100BB000601CC4B20C2CF6DBFFF7A6FF0021084630
:100BC00000F006F838BD0000000C01407C03002056
:100BD00070B504460D4605F1B001C8B2002100F021
:100BE00065F8102141EA1410002100F05FF804F0CC
:100BF0000F0141F00100002100F058F870BD000025
:100C00002DE9F04106460F46904600250024A8F144
:100C10002000C5B27F2E02DD0026B81CC7B2B01C72
:100C2000C6B239463046FFF7D3FF002408E004EB94
:100C300005110F4A505C012100F038F8601CC4B265
:100C4000082CF4DB781CC1B23046FFF7C1FF00244A
:100C500009E004EB05110831054A505C012100F060
:100C600025F8601CC4B2082CF3DBBDE8F08100005D
:100C70007C3800082DE9F04104460F461546002651
:100C80000EE0AA5D39462046FFF7BAFF04F10800DE
:100C9000C4B2782C02DD0024B81CC7B2701CC6B2E6
:100CA000A85D0028EDD1BDE8F081000070B50446D4
:100CB0000E462EB14FF480611C48FFF7D3FE04E0CE
:100CC0004FF480611948FFF7CBFE4FF4805117486D
:100CD000FFF7C6FE00251BE04FF400511348FFF755
:100CE000BFFE04F0800028B14FF400410F48FFF729
:100CF000B9FE04E04FF400410C48FFF7B1FE4FF499
:100D000000510A48FFF7AEFE6006040E681CC5B22B
:100D1000082DE1DB4FF480510448FFF7A3FE4FF4A8
:100D200080610248FFF79EFE70BD0000000C01408C
:100D30007047000029B1064AD2690243044BDA61C8
:100D400004E0034AD2698243014BDA617047000034
:100D50000010024029B1064A12690243044B1A618D
:100D600004E0034A12698243014B1A617047000094
:100D70000010024029B1064A92690243044B9A616D
:100D800004E0034A92698243014B9A617047000074
:100D90000010024029B1064AD2680243044BDA60CF
:100DA00004E0034AD2688243014BDA6070470000D6
:100DB0000010024030B500210022002400232D4DF8
:100DC0006D6805F00C0121B1042905D0082923D153
:100DD00005E0294D056022E0284D05601FE0254D06
:100DE0006D6805F47012234D6D6805F4803402259A
:100DF00005EB92421CB9224D554305600BE01D4D99
:100E00006D6805F400351DB11B4D5543056002E0CA
:100E10001A4D5543056002E0174D056000BF00BF45
:100E2000144D6D6805F0F0010909164D6B5C0568FD
:100E3000DD4045600F4D6D6805F4E061090A114D14
:100E40006B5C4568DD4085600A4D6D6805F4605156
:100E5000C90A0C4D6B5C4568DD40C560054D6D6889
:100E600005F44041890B084D6B5CC568B5FBF3F593
:100E7000056130BD0010024000127A000024F40029
:100E800000093D00480100205801002001460020D3
:100E9000044A10884FF6C77210400843014A108078
:100EA000704700000030014021B1028842F040024A
:100EB000028004E002884FF6BF731A400280704738
:100EC00000B587B0294800F055F80020ADF80800BB
:100ED0004FF48270ADF80A000020ADF80C00ADF8B8
:100EE0000E00ADF810004FF40070ADF812001020A5
:100EF000ADF814000020ADF816000720ADF818007A
:100F000002A91A4800F06BF8A020ADF804001820E0
:100F10008DF8070003208DF8060001A91448FFF79B
:100F2000CBFC4020ADF8040048208DF8070001A953
:100F30000F48FFF7C1FC1020ADF804008DF8070042
:100F400003208DF8060001A90948FFF7B5FC002130
:100F5000064800F062F801210448FFF7A5FF1021C0
:100F60000348FFF77FFD002007B000BD00300140BF
:100F70000008014010B504461148844208D10121FF
:100F80008014FFF707FF0021A014FFF703FF16E00E
:100F90000C48844208D101210014FFF7DBFE002138
:100FA0002014FFF7D7FE0AE00748844207D1012149
:100FB000C013FFF7CFFE0021E013FFF7CBFE10BDFB
:100FC0000030014000380040003C00400246002054
:100FD00013890B400BB1012000E00020704710B5D1
:100FE0000022028802F441520B884C8823438C88EB
:100FF0002343CC8823430C8923434C8923438C8986
:101000002343CC8923431A430280838B4FF2FF741E
:10101000234083830B8A038210BD21B1828842F072
:101020000402828004E082884FF6FB731A408280BB
:101030007047000038B504460D46234951F8241086
:10104000224A52F82420114341F001000121FFF708
:1010500091FE34B91E4951F824000121FFF78AFEA0
:1010600005E01B4951F824000121FFF763FE182019
:101070008DF80300174830F81400ADF80000032085
:101080008DF80200144951F824006946FFF714FC5A
:1010900004208DF80300114830F81400ADF800006A
:1010A0000F4951F824006946FFF706FC0D4951F835
:1010B0002400294600F08EFA0A4951F82400012143
:1010C00000F06FFA38BD00003C36000844360008D6
:1010D000343600084C360008A801002050360008BD
:1010E000B0010020A0010020034931F81010034A8C
:1010F00052F8202051617047AC3500087001002083
:10110000034931F81010034A52F82020116170474A
:10111000AC3500087001002070470000002000BFBF
:1011200003E00021024A1154401C0228F9DB7047F9
:101130003001002010B500F001F810BD0CB5002002
:10114000019000903348006840F4803031490860D5
:1011500000BF3048006800F4003000900198401C47
:101160000190009818B90198B0F5A06FF1D1294805
:10117000006800F4003010B10120009001E0002070
:1011800000900098012843D12348006840F01000E7
:10119000214908600846006820F0030008600846FE
:1011A000006840F0020008601A4840681949486029
:1011B0000846406848600846406840F480604860DF
:1011C0000846406820F47C1048600846406840F4B7
:1011D000F81048600846006840F08070086000BF62
:1011E0000C48006800F000700028F9D009484068F9
:1011F00020F00300074948600846406840F00200BC
:10120000486000BF0348406800F00C000828F9D18E
:101210000CBD000000100240002002400021002010
:10122000012103E0034A525C1044491C0229F9DB06
:10123000704700003001002010B5134800684FF4DB
:101240007A71B0FBF1F4B4F1807F01D3012011E099
:1012500024F07F40401E4FF0E02148610F214FF005
:10126000FF30FFF73DFC00204FF0E02188610720B0
:101270000861002008B100BFFEE70521881FFFF7C5
:101280002FFC002010BD00005C0100200248006817
:10129000401C0149086070470000002010B5134849
:1012A000006840F001001149086008464068104994
:1012B00008400E494860084600680E4908400B493E
:1012C00008600846006820F48020086008464068EE
:1012D00020F4FE0048604FF41F008860FFF72AFFEB
:1012E0004FF000600449086010BD0000001002408B
:1012F0000000FFF8FFFFF6FE08ED00E02DE9F041E9
:1013000000260025A84600BF1EE1962001F0F0FB54
:1013100040F68C2001F008FC8E4800788E498870D9
:101320000F20C87000220C2001F005FD00210C20C8
:1013300001F014FD022001F035FC002001F03DFB1E
:1013400000BF00210F2001F0C7FA844908608449DA
:1013500008400028F5D002218248FFF783FB7F4830
:10136000008800F4804000287ED04FF481420021A4
:101370000F2001F094FC0021102001F0ADFA00F0E4
:101380007F05182D04DC00222946774801F0F8FA81
:101390007548C0780F2800D0D4E000207249C8708A
:1013A00088700A2271497048FEF7E0FE002871D16A
:1013B00001F082FD6E4A03C201F068FD6D4A03C26E
:1013C0006C48D0E900104FF02F63C91840F10000BD
:1013D000020642EA1127384601F019FB27F0010006
:1013E0000021090241EA10610302002210469A1806
:1013F00041416148C0E900215D480CC85F4801F0E7
:1014000021FD5C480CC85D48001D01F01BFD5A48D9
:101410000CC85A48083001F015FD4E48007857496D
:101420000A3988700F20C8700022182001F083FC50
:101430000021182001F092FC032001F0B3FB00BF53
:1014400000210F2001F048FA44490860444908404F
:101450000028F5D04148008800F48040002860D082
:101460004FF48142002100E061E00F2001F017FC01
:101470000021102001F030FA00F07F05182D04DC67
:1014800000222946384801F07BFA3748C0780F28F7
:1014900001D057E050E000203349C87088700A221C
:1014A00037493148FEF762FE00283FD12E48807A46
:1014B0004FF47A7148432C49C97A01EB810100EB62
:1014C00041002949097B2F4A52F821100844264936
:1014D000097B42F821002448007B2B4951F8200069
:1014E000401C2149097B284A42F82100002414E0CD
:1014F000254850F8240005280EDB00F0EFFE0024FC
:1015000007E00020204941F824001E4941F824004A
:10151000641C032CF5DB02E0641C032CE8DB00BF39
:1015200004E01A4A00210F2001F0B9FB04E0174A39
:1015300000210F2001F0B3FB06480078401C05494C
:10154000087000BF701CC6B2032EFFF6DEAEBDE809
:10155000F0810000E800002055000020EC00002091
:1015600000D02724000801409003002061000020E3
:101570000801002010010020180100207A0000203E
:101580004600002018040020240400200090272496
:1015900001F40072B2F5007F00D100BFCA4302809F
:1015A000704721B1828942F40052828104E082892D
:1015B0004DF6FF731A408281704702460020B1F554
:1015C000007F00D100BF13880B400BB1012000E069
:1015D000002070472DE9F04786B005460E460024EE
:1015E000A24600BFA1460027B08900B100BF2F4628
:1015F0002C8A4CF6FF700440F08804432C82AC899E
:101600004EF6F3100440B0883189084371890843CD
:101610000443AC81AC8A4FF6FF400440B0890443D8
:10162000AC8201A8FFF7C6FB1F48874202D1DDF854
:1016300010A001E0DDF80CA0A88900F4004040B142
:101640000AEBCA0000EB0A1031684900B0FBF1F860
:1016500007E00AEBCA0000EB0A1031688900B0FB12
:10166000F1F86420B8FBF0F004012009642101FBCB
:101670001089A88900F4004040B1322000EBC90075
:10168000B0FBF1F000F00700044308E0322000EB6B
:1016900009106421B0FBF1F000F00F0004432C812D
:1016A00006B0BDE8F087000000380140C1F3080231
:1016B0008280704700BFFEE70FB4054B10B503A949
:1016C000044A029800F0BCF910BC5DF814FB00005D
:1016D000612E0008880300200FB4084B10B504A940
:1016E00002AA039800F0ACF9044602A9002000F019
:1016F0002AFD204610BC5DF814FB000047210008BD
:1017000002E008C8121F08C1002AFAD170477047CA
:10171000002001E001C1121F002AFBD1704738B53B
:1017200004466D2000906B46012240F606012E20F3
:1017300001F0CDFA3CB140F2076241F606012E20DD
:1017400001F09AFA06E041F2076241F606012E2006
:1017500001F092FA38BD38B504466B4602220021EA
:10176000362001F0DBF80E2C57D2DFE804F0110729
:101770001A56565656233256563F464D00208DF87F
:1017800000009DF8010000F0FE008DF8010045E02A
:101790009DF8000000F0FC0040F001008DF8000012
:1017A0003CE09DF8000000F0FC0040F002008DF8E5
:1017B000000033E09DF8000000F0B30040F0480066
:1017C0008DF800009DF8010040F080008DF80100C8
:1017D00024E09DF8000000F0B3008DF800009DF8B3
:1017E000010000F07F008DF8010017E09DF8010076
:1017F00040F002008DF8010010E09DF8010000F0BB
:10180000FD008DF8010009E09DF8000000F0CF0018
:1018100040F020008DF8000000E000BF00BF6B46E4
:1018200001220021362001F052FA0DF101030122BC
:101830001146362001F04BFA38BD08B503208DF86B
:10184000010001208DF800006B46022200213620A5
:1018500001F03DFA4FF4004206212D2001F00CFA70
:10186000012000F02BFD0120FFF775FF08BD38B502
:101870000446200A8DF80100E0B28DF800006B46A6
:10188000022204212D2001F022FA03208DF800000D
:101890006B46012206212D2001F019FA00208DF857
:1018A00000006B46012206212D2001F010FA0A21CA
:1018B0002D2001F011F80546284638BD2DE9FF5FBF
:1018C00082B00021DDE90430020DDDF840B00343B1
:1018D00018D044F61050A2F2FF324243151411986A
:1018E00001281FD0A5EB0B00401C5FEA000A4FF057
:1018F00000064E4FDFF83891B046504615D5CAF174
:10190000000413E0119801244AA3012801D16FEAD1
:101910000B010298119AC0E90031C0E9024206B0F9
:10192000BDE8F09FCBF10000DFE704460021404A0C
:10193000491842EB0450CDE9001012E0E00707D04F
:1019400032463B4640464946FEF702FD8046894600
:1019500032463B4610461946FEF7FAFC06460F464D
:101960006410002CEAD1DDE90401DDE90023BAF1BD
:10197000000F06DAFEF7ECFC42464B46FEF7E8FCA9
:1019800005E0FEF757FD42464B46FEF753FD044681
:101990000E460022284BFEF7D9FD03D84FF0FF304A
:1019A000014607E00022254B20463146FEF729FC80
:1019B000FEF7F0FE102409E0002C0ADB0A220023C7
:1019C000FEF7F2FD039B30321A55641E50EA010205
:1019D000F2D1641C039AC4F111031444119A012A30
:1019E00003D0012208430DD10AE0084304D00020AF
:1019F0004FF0110B119072E7A3EB0B056D1E0DE07C
:101A00005B4504DD4FF0000205F1010504E003DA57
:101A10004FF00002A5F10105002AECD002981199BF
:101A2000C0E90231C0E9004579E700000000144038
:101A30000000F03F300000000000F0430000E03FF5
:101A40002DE9FF4F95B09A46884606460025EEE1FF
:101A5000252877D100242746F94A0121039400E084
:101A6000044316F8013F203B01FA03F01042F7D17E
:101A700030782A2811D06FF02F033078A0F130028F
:101A8000092A16D8039A44F0020402EB820203EBFF
:101A900042021044761C0390EFE758F8042B03929F
:101AA000002A03DA504244F40054039044F0020444
:101AB000761C30782E2816D116F8010F44F0040455
:101AC0002A280DD06FF02F023078A0F13003092BB7
:101AD00009D807EB870302EB4303C718761CF3E72B
:101AE00058F8047B761C30786C280FD006DC4C2824
:101AF00017D068280DD06A2814D104E0742810D0BB
:101B00007A280FD10DE044F400140AE044F4801464
:101B100001E044F440147278824202D104F580144A
:101B2000761C761C307866280BD013DC582877D0CA
:101B300009DC002875D04528F6D04628F4D047287F
:101B40001AD193E118E0632835D0642879D065284C
:101B500012D18BE1702873D008DC6728F1D0692896
:101B60006FD06E280DD06F2806D1ACE073282CD032
:101B7000752874D0782853D05246179990476D1C19
:101B800054E1C4F30250022809D003280DD0D8F83C
:101B9000001004280DD00D6008F1040846E1D8F8C3
:101BA0000010EA17C1E90052F6E7D8F800100D80DE
:101BB000F2E70D70F0E718F8041B8DF80010002014
:101BC0008DF80100EB46012003E058F804BB4FF00C
:101BD000FF3061074FF0000102D40DE009F101016F
:101BE0008946B9420FDA8145F8DB1BF80910002954
:101BF000F4D108E009F1010189468142FADB1BF8C2
:101C000009100029F6D103985346A0EB0907214695
:101C10003846179A00F080FA284400EB090507E0DF
:101C200044E008E10DE01BF8010B5246179990477C
:101C3000B9F10109F7D2534621463846179AF2E026
:101C400039E00A21C4F302524FF0000B0091022A3E
:101C500006D058F8040BC117032A09D00AE023E084
:101C600008F1070020F00702F2E80201904605E0C3
:101C700000B2C117042A01D140B2C117002906DA07
:101C80000A460021404261EB02012D2202E02205BA
:101C900004D52B228DF80420012203E0E20701D0B5
:101CA0002022F7E7914657E00A2100E010214FF08B
:101CB000000B00910BE010214FF0000B44F00404E6
:101CC0000827009103E008204FF0000B0090C4F3B8
:101CD0000252022A05D058F8040B0021032A08D02A
:101CE00008E008F1070020F00702F2E80201904640
:101CF00003E080B2042A00D1C0B24FF000092207ED
:101D00002AD53278702A07D0DDF800C08CF0100C8C
:101D10005CEA0B0C05D00EE040228DF80420012275
:101D200008E050EA010306D030238DF804308DF826
:101D3000052002229146009B83F0080353EA0B031F
:101D40000AD150EA010201D1620705D530228DF88F
:101D500004204FF001097F1E3278582A04D039A29E
:101D60000C920CAA02920BE03BA2F9E75B46009AA8
:101D7000FEF71AFC0C9B9B5C029A521E0292137097
:101D800050EA0102F2D1029804A9081A00F1200BCE
:101D9000600702D524F4803400E001275F4502DDAE
:101DA000A7EB0B0000E0002000EB0B010090039874
:101DB0004944401A0390E00306D453462146179A3B
:101DC000039800F0A9F90544002706E001A852464F
:101DD000C05D179990476D1C7F1C4F45F6DBE003F3
:101DE0000CD553462146179A039800F095F90544FF
:101DF00004E030205246179990476D1C0099481E08
:101E000000900029F5DC08E002980299524600781B
:101E1000491C0291179990476D1CBBF10001ABF171
:101E2000010BF1DC5BE100F065F90544761C3078CC
:101E300000287FF40DAE19B02846BDE8F08F0000F1
:101E40000928010030313233343536373839616290
:101E50006364656600000000303132333435363754
:101E6000383941424344454600000000600700D431
:101E7000062708F1070020F00700F0E8022380465B
:101E800003F0004C5FEA0C0001D097A009E02005A8
:101E900001D596A005E0E00701D095A001E0AFF2E2
:101EA0004C001390307823F0004365280CD006DCFA
:101EB000452809D046281DD047287FD13BE0662819
:101EC00018D067287AD136E00021112F01DB1120CC
:101ED00000E0781CCDE9000104A90CA8FFF7EEFC96
:101EE000DDE90D010C9A4FF0000B07F1010910928A
:101EF00000914EE04FF000400097CDE9011004A999
:101F00000CA8FFF7DBFCDDE90D020C9B0F994FF0ED
:101F1000000B91461093009211B9791C00EB010956
:101F2000B7EB090003D4C0F1FF3B07F10109A9EBAE
:101F30000700019042E0012F00DA01270021112F54
:101F400001DD112000E03846CDE9000104A90CA80C
:101F5000FFF7B4FCDDE90D010C9A00914FF0000B86
:101F6000B946109221070FD4009A4A4503DA9146E8
:101F700001E0A9F10109B9F1010F05DD109AA9F1FC
:101F80000101515C3029F4D0B84202DA10F1040F9B
:101F900003DA0121CDE9011010E0002803DC8344BD
:101FA000A9EB000102E0411C494500DD8946A0EB98
:101FB0000B00401C01904FF000400290200705D418
:101FC0000198484502DB4FF0FF30019000208DF86A
:101FD0004B0002980DF14B07B0F1004F25D00220C5
:101FE0000C902B200D90029800280CDA40420290B1
:101FF0002D200D9007E00A210298FEF7BFFA30313C
:10200000029007F8011D0C99481E0C900029F2DC83
:1020100002980028EFD1791E0D980870307800F0F2
:10202000200040F0450007F8020D11A8C01BC01D9C
:1020300002901398007800B1012000EB090101988B
:1020400001EBE071029801440398401A401E03908E
:10205000E00306D453462146179A039800F05CF833
:1020600005441398007818B15246179990476D1C93
:10207000E00323D553462146179A039800F04CF805
:1020800005441BE0BBF1000F07DB0098584504DD59
:102090001098179910F80B0001E01799302052465C
:1020A000904701980BF1010B401E05F101050190CD
:1020B00004D12E205246179990476D1CB9F10001AA
:1020C000A9F10109DEDC05E017F8010B524617996A
:1020D00090476D1C0299481E02900029F4DC53467B
:1020E0002146179A03989EE62D0000002B00000061
:1020F000200000002DE9F041044600251E46174649
:10210000880404D405E039462020B0476D1C641EC5
:10211000F9D52846BDE8F0812DE9F04104460025B7
:102120001E469046C80301D5302700E020278804CA
:1021300004D505E041463846B0476D1C641EF9D50C
:102140002846BDE8F0810A68531C0B601070704788
:1021500070B504460D46164600200121554AD1723D
:102160006D230146401C0D31535472230146401C1F
:102170000D31535402230146401C0D3153540F239B
:102180000146401C0D3153544B490B780146401C0D
:102190000D31535448490988C1F307230146401CB7
:1021A0000D3153540A2194FBF1F1CBB20146401C8E
:1021B0000D3153540A2194FBF1F1C1F30723014679
:1021C000421CD0B20D313B4A53540A2195FBF1F128
:1021D000CBB20146421CD0B20D31364A53540A21CB
:1021E00095FBF1F1C1F307230146421CD0B20D313A
:1021F000304A53540A2196FBF1F1CBB20146421CFE
:10220000D0B20D312B4A53540A2196FBF1F1C1F3A0
:1022100007230146421CD0B20D31264A53540A21ED
:1022200094FBF1F1CBB20146421CD0B20D31214AF0
:1022300053540A2194FBF1F1C1F307230146421CD8
:10224000D0B20D311B4A53540A230146421CD0B26E
:102250000D31184A53540D230146421CD0B20D31A2
:10226000144A53541146087300F10B011E2901DD75
:1022700000BFFEE7104800780E4988700F20C87034
:1022800000221F2000F057FD00211F2000F066FDF6
:10229000002000F087FC00BF00210F2000F01CFB95
:1022A00000F080000028F7D003480068401C024975
:1022B000086070BD880000204401002070B504460D
:1022C00001F092F8051900BF01F08EF8401B0028BC
:1022D000FADD70BD70470020704700002DE9F04125
:1022E000002414E05E4850F8240000280EDD5D480C
:1022F00050F824005A4951F8241090FBF1F521467A
:10230000284600F057FD574941F82400641C032C6F
:10231000E8DB544B9A6859681868FFF719FF524870
:102320000068012804D100204F490860FEF79EFB99
:10233000FEF79CFB4A480068002827DD49490868E9
:10234000FEF7E7F807464949FDF71DFF0446FEF78B
:10235000E9F805462A460B4645A14848FFF7BCF96F
:10236000464A02210020FEF785FC3E490868FEF738
:10237000D0F807463D49FDF706FF0446FEF7D2F8C0
:1023800005462A460B463EA0FFF796F934484068BA
:10239000002827DD33494868FEF7BBF80746334974
:1023A000FDF7F1FE0446FEF7BDF805462A460B464A
:1023B00036A13248FFF790F9304A04210020FEF799
:1023C00059FC28494868FEF7A4F807462749FDF755
:1023D000DAFE0446FEF7A6F805462A460B462EA06E
:1023E000FFF76AF91E488068002827DD1D498868C4
:1023F000FEF78FF807461D49FDF7C5FE0446FEF7B8
:1024000091F805462A460B4626A11C48FFF764F9B9
:102410001A4A06210020FEF72DFC12498868FEF7B3
:1024200078F807461149FDF7AEFE0446FEF77AF844
:1024300005462A460B461EA0FFF73EF908480068ED
:10244000002807DC06484068002803DC0448806850
:10245000002802DD19A0FFF72FF9BDE8F081000088
:1024600024040020180400204001002000007A44C9
:10247000616E303A25332E32666D0000A8030020CD
:10248000616E303A25332E3366202000616E313A7A
:1024900025332E32666D0000616E313A25332E33BE
:1024A00066202000616E323A25332E32666D0000C0
:1024B000616E323A25332E33662020000D0A00006B
:1024C0002DE9F84F04464FF00009CA462578607997
:1024D000824931F810806078401E8149C6B2086395
:1024E000042D01D0072D01D1012000E000208346FA
:1024F00020787B490873E07938B90846806940F450
:10250000800088614FEAE80805E07548806920F49A
:10251000800073498861207A714948730846806950
:10252000217A4FF4403202EA014108436C49886144
:10253000084600218269042000F0B1FB424642F6C1
:1025400004012E2000F098FB3046FFF7E8F86548BC
:10255000405D00EB800064494318052207212B20D1
:1025600000F0B5FB614800EB0B0301220B21282092
:1025700000F0ADFB5B48405D5D4951F820200C2127
:10258000282000F08CFBE0795A4901EB8000A1790A
:1025900030F811200221272000F06EFB564830F859
:1025A00016200421272000F067FBE07928B9642277
:1025B0000621272000F060FB1EE0A07804280DD142
:1025C0001020009010220621272000F055FB6B46BA
:1025D00001222621272000F07AFB0DE02820009020
:1025E00020220621272000F047FB6B4601222621EE
:1025F000272000F06CFB00BF404800EB0610E1789C
:1026000050F821200821272000F049FBB4F80900E8
:1026100018B941F24100A4F80900B4F809202021BA
:10262000272000F029FB36480C210268232000F007
:1026300036FB3348001D30F816200421232000F01B
:102640001BFBA07958B1E0792E49431801220021E3
:10265000212000F03CFB4FF003094FF0010A05F088
:102660000F00F02101EA0511084361784FF4402280
:1026700002EA81410843910001EA095108434FF4FD
:10268000003101EA4A41084321794FF0F86202EA39
:10269000815108436179520102EAC16140EA0107B0
:1026A0003A4600211F2000F0FAFAA078617808432A
:1026B00000040B49086108460069E1794FF40042C3
:1026C00042EA41310843064908610846002102698F
:1026D000082000F0E4FA0020BDE8F88FE83E00088A
:1026E000A80400206C3E00088C3E0008AA3E0008AA
:1026F000743E0008B83E0008C43E0008C83E00080A
:10270000AC3E0008B43E000870B5054604213620F2
:1027100000F0E2F8044615B144F4006401E024F44A
:10272000006422460421362000F0B9FA70BD000092
:1027300038B54020009000210E2000F0CDF805466D
:10274000FFF7C9FD0446002211460E2000F0A7FA4B
:102750006B46012200210D2000F0B9FA094A002140
:102760000F2000F09CFA00F06BFA2A4600210E20A0
:1027700000F095FA2046FFF7ADFD0020024981F8F0
:102780002C0038BDF8FF2724A80400202DE9FC41C7
:102790000446042001900025002700204049487588
:1027A000086300213E4880F8251000203C4981F84C
:1027B0002C0088834863886300F0AAF838490860D1
:1027C00008460068374988420AD002213648FEF799
:1027D00047F904213448FEF743F9681EBDE8FC813F
:1027E0000020FEF7B8FF01AB01220021242000F0F9
:1027F0006EFA1E20FFF73BF885B2280A2849887335
:102800000420FFF734F80746F8B270B102200090B8
:102810006B46012212212D2000F059FA2048808BAE
:1028200040F480501E49888300BF0620FFF71FF840
:102830001B4948600720FFF71AF81949886005F01E
:102840001F0008750846007D08B910200875144956
:10285000087D00F095FA04F0010040B1FEF7EDFFAD
:102860000F48808B40F400600D4988830DE00521FE
:10287000362000F01BF806464FF6FF500640324661
:102880000521362000F0F8F900BF0120FEF763FFB4
:102890000021042000F020F80149886100209DE714
:1028A000A80400203001CADE00080140F8B5044643
:1028B0000D464FF6FF76A9B2A0B26B46022200F099
:1028C0002DF8074637B99DF800009DF8011000EB80
:1028D000012086B23046F8BD2DE9F84305460E4684
:1028E0004FF0FF37B1B2A8B26B46042200F016F8E1
:1028F0008046B8F1000F08D1032404E01DF804005D
:1029000000EB0727641E002CF8DA3846BDE8F88390
:1029100010B500210846FFF7DFFF10BD2DE9F84391
:1029200006460C461746984600252CB9F2B22846B2
:102930006D1C0DF800201BE0F0B240F0400228466C
:102940006D1C0DF800207F2C05DCE2B228466D1CC2
:102950000DF800200CE0E0B240F0800228466D1C2B
:102960000DF80020C4F3C71228466D1C0DF8002096
:10297000A8B243463A46694600F03CFDBDE8F883FC
:1029800070B504460D46164623462A4631461120A8
:10299000FFF7C4FF70BD10B5044623460522002191
:1029A0001520FFF7BBFF10BD10B5044623460522D6
:1029B00000211720FFF7B2FF10BD38B504460020F4
:1029C000009000F03DF94FF480750CB145F40075AE
:1029D0002A4600210D2000F04FF9B4B16B460122C8
:1029E00003210F20FFF79AFF9DF8000000F0080078
:1029F00058B1FFF79DFE4FF480752A4600210D2047
:102A000000F03AF94FF0FF3038BD0020FCE710B578
:102A10000446224601210A2000F041F910BD38B5D4
:102A2000044604F00100B8B36B46022200212620C0
:102A3000FFF774FF9DF8010020F03C008DF80100C5
:102A40009DF8010040F014008DF801000DF1010324
:102A500001221146262000F03AF96B46012202219C
:102A60003620FFF75BFF9DF8000040F084008DF8F2
:102A700000006B4601220221362000F028F91020C8
:102A80008DF8000001208DF801006B4602222821FC
:102A9000362000F01CF915E0FFE704F0010088B9CA
:102AA0006B46022200212620FFF738FF9DF8010027
:102AB00020F014008DF801006B4602220021262030
:102AC00000F005F904F0020088B10F208DF8000035
:102AD0006B4601222A21362000F0F9F800208DF8FB
:102AE00000006B4601222A21362000F0F0F838BDA4
:102AF00070B5054600211A20FFF7EEFE04466FF37D
:102B00001304C5F313000443224600211A2000F0E9
:102B1000C6F870BD10B50446224641F604012E20C9
:102B200000F0AAF810BD000038B504466B4601223B
:102B300003210420FFF7F2FE002C16DD22460021BF
:102B40000C2000F099F89DF8000040F01000009073
:102B50000F48806940F080500D4988616B46012222
:102B60000321042000F0B3F810E09DF8000020F0ED
:102B7000100000900648806920F080500449886168
:102B80006B4601220321042000F0A1F838BD0000AB
:102B9000A804002010B5044622460021182000F0A9
:102BA0006BF810BDF8B50446002500200090002603
:102BB00004F0020058B1802000906B4601220021F1
:102BC0000D2000F084F801201C4981F82C0004F04D
:102BD000010028B39DF8000040F0060000906B460D
:102BE000012200210D2000F072F803210F20FFF7D1
:102BF0005DFE064606F4816008B900251BE0402012
:102C000000906B46012200210D2000F060F80020AA
:102C1000FFF77AFD0020094981F82C00451E0AE0E3
:102C20009DF8000040F0020000906B460122002158
:102C30000D2000F04CF82846F8BD0000A804002044
:102C40001CB501AB012203210F20FFF767FE9DF8A1
:102C5000040000F080009DF8041001F04001B0EB8A
:102C6000410F08D0012000906B46012203210D2066
:102C700000F02DF800BF1CBDF8B505460E46144601
:102C8000E0B28DF8000020128DF80100B1B2A8B2B8
:102C90006B46022200F01BF807463846F8BD2DE9C6
:102CA000F84306460F461446002504E0E0B20DF84E
:102CB0000500240A6D1C042DF8DBB9B2B0B26B46D6
:102CC000042200F004F880464046BDE8F8832DE970
:102CD000F84306460C461746984600253CB9F0B224
:102CE00040F0800228466D1C0DF800201BE0F0B279
:102CF00040F0C00228466D1C0DF800207F2C05DC3A
:102D0000E2B228466D1C0DF800200CE0E0B240F065
:102D1000800228466D1C0DF80020C4F3C712284617
:102D20006D1C0DF80020A8B243463A46694600F0F3
:102D3000FFFBBDE8F88370B504460E46154628191A
:102D4000B0F5806F02DD4FF0FF3070BDA21E33463C
:102D500029460920FFF7BBFF0020F6E770B50446BF
:102D60000D4606480069204340EA85563246002158
:102D70000820FFF794FF002070BD0000A804002089
:102D800038B504466B4601220E212B20FFF7C6FD05
:102D90009DF8000020F01F00009004F01F009DF837
:102DA0000010084300906B4601220E212B20FFF7F4
:102DB0008EFF38BD70B5044600220023002C2ADDAA
:102DC0001E4850F8215050F82100401C1B4E46F878
:102DD000210001EB81001A4E06EB800040F82540EF
:102DE000164850F82100052803D10020134D45F85E
:102DF0002100002209E001EB8100114D05EB80006C
:102E000050F822000344501CC2B2052AF3DB05200F
:102E100093FBF0F070BD002209E001EB8100084D4A
:102E200005EB800050F822000344501CC2B2052A72
:102E3000F3DB052093FBF0F0ECE7000094040020A6
:102E40003004002070B50146002005E00A54140A41
:102E500044EA03621B0A401C0428F7DB70BD000033
:102E600070B504460D4640210748FEF791FBE1B2DC
:102E70000548FEF71BFC00BF40210348FEF79DFB01
:102E80000028F9D0204670BD003801407CB50021F3
:102E90000C460D466846FFF77EFD042607E0280233
:102EA00040EA146524021DF806000443761E002E35
:102EB000F5DA204629467CBD7CB500210C460D463E
:102EC0006846FFF771FD042607E0280240EA146512
:102ED00024021DF806000443761E002EF5DA204673
:102EE00029467CBD10B5044634B1012C09D0022C12
:102EF0000CD0032C14D10EE002210B48FDF7B0FDDD
:102F00000FE004210848FDF7ABFD0AE00821064860
:102F1000FDF7A6FD05E00E210348FDF7A1FD00E049
:102F200000BF00BF10BD00000008014010B50446FE
:102F300034B1012C09D0022C0CD0032C14D10EE09A
:102F400002210B48FDF78EFD0FE004210848FDF734
:102F500089FD0AE008210648FDF784FD05E00E2101
:102F60000348FDF77FFD00E000BF00BF10BD00007B
:102F70000008014000BF0024A0460025002600F004
:102F800015FAD7A0FEF798FB00F074FA00F09FFA4C
:102F90000120FFF7FBFB401CA8B9D6A0FEF78CFB75
:102FA000DAA200210846FDF765FE0BE00020FEF7DF
:102FB000A7F86420FFF782F90020FEF795F8642057
:102FC000FFF77CF9F2E700F07DFAD348FFF778FAD3
:102FD0000120FFF724FD48F2B600FFF79BFD00201B
:102FE000FFF7D8FDCDA200210846FDF743FECEA095
:102FF000FEF762FBD049D148D14AC2E90010D1485E
:10300000D149C2E90201002111615161CF48C2E9F1
:103010000610116251620022C9498A62CA62002008
:103020000A4610635063002208468263C26302644A
:10303000426400BF00BF9620FFF75AFD40F68C2087
:10304000FFF772FDC2A200210846FDF713FEC4A2DD
:1030500006210020FDF70EFEC5A202210020FDF78B
:1030600009FE4FF00108FEF759F8002536E1B8F1E6
:10307000010F0BD10221C248FDF7F2FC0421C04828
:10308000FDF7EEFCFEF73AF94FF00008FEF7C6F840
:1030900000285CD1012452E00020BA49887008461B
:1030A000C47000220D20FFF746FE00210D20FFF71F
:1030B00055FE0220FFF776FD00BF00210F20FFF72D
:1030C0000BFCB1490860B14908400028F5D0AE4872
:1030D000008800F4804058B34FF4814200210F2053
:1030E000FFF7DDFD00211020FFF7F6FB00F07F0663
:1030F000182E04DCB1B20022A548FFF741FC0020E5
:10310000A34988700846C078A04216D10846C778FF
:103110000020C8700A229F499D48FDF727F830B962
:1031200001209D49C85504219548FDF79BFC04E00A
:103130009A4A00210F20FFF7B2FD601CC4B2022C96
:10314000AADB012401E0601CC4B2022CFBDB002DD1
:103150006DD1FEF763F8002869D000208E49087011
:10316000012461E08C48005D01285BD19620FFF7C7
:10317000BFFC40F68C20FFF7D7FC00208849887000
:103180000846C47000220D20FFF7D5FD00210D2058
:10319000FFF7E4FD0220FFF705FD00BF00210F202F
:1031A000FFF79AFB78490860784908400028F5D075
:1031B0007548008800F4804060B302217048FDF734
:1031C00051FC4FF4814200210F20FFF768FD0021E0
:1031D0001020FFF781FB00F07F06182E04DCB1B24F
:1031E00000226B48FFF7CCFB002069498870084635
:1031F000C078A04216D10020C87008216048FDF7B1
:1032000031FC0A2267496248FCF7B0FF50B9681CDC
:10321000C5B20BE0002060490855604A00210F202C
:10322000FFF73DFD601CC4B2022C9BDB00BF002DEC
:103230004EDD43F2BC40FFF777FC0020FFF7BDFBFB
:1032400000BF00210F20FFF747FB4F4908604F499F
:1032500008400028F5D04C48008800F4804058B35E
:103260004FF4804200210F20FFF719FD00211020AC
:10327000FFF732FB46B2B6F5806F04DCB1B2002234
:103280004348FFF77DFB0020414988700846C77816
:103290000020C8700A2244493D48FCF767FF50B936
:1032A0003D48C05D012806D100203B49C855002D8E
:1032B00001DD681EC5B20BE0002D04DD681EC5B23D
:1032C000002035490855354A00210F20FFF7E7FC5B
:1032D000FDF7A4FF10B94FF001080025C7E6000074
:1032E00068656C6C6F2064776D31303030210D0A69
:1032F0000000000064776D3130303020696E6974F1
:10330000206661696C210D0A00000000494E495495
:10331000204641494C00000008000020494E495415
:103320002050415353000000696E6974207061732E
:1033300073210D0A00000000B81E85EB51B8BE3F96
:10334000B8030020C3F5285C8FC2D53F0000D03FF2
:103350002020203531555742204E6F646500000013
:1033600020207777772E35317577622E636E0000D7
:103370002020204D41535445522054414720000005
:1033800000080140B4000020EC00002000D02724F9
:1033900090030020CE000020300100200090272460
:1033A000C1000020DB000020A700002010B5012193
:1033B0007D20FDF7DFFC01210A48FDF709FB012113
:1033C0000803FDF7D7FCFDF73DFAFDF735FF00F0E8
:1033D00075F8FDF7B9FBFDF797FB00F07DF8FDF7F9
:1033E00065FB10BD00023000014800687047000016
:1033F000000000202DE9F04706460F4690461D4686
:103400000024FEF768FF814610201849086000BFBD
:103410000DE0385D1649888100BF01211448FDF791
:10342000D5FD0028F9D0124880892870641CB44268
:10343000EFDB00240DE000200D49888100BF0C481F
:10344000008900F001000028F9D00948808928553A
:10345000641C4445EFD310200449091F0860484606
:10346000FEF738FF0020BDE8F08700001408014097
:103470000030014008B51020ADF800008DF80300C1
:1034800003208DF8020069460B48FDF715FA10215C
:103490000948FDF7E5FA1020ADF8000000208DF88E
:1034A000030003208DF8020069460348FDF704FA83
:1034B0000220FEF703FF08BD000C014010B5FDF728
:1034C000FFFC10BD00B50820FDF7E0FC00BD00B515
:1034D0002020FDF7DBFC00BD1FB54FF4E13000906C
:1034E0000020ADF80400ADF80600ADF80800ADF816
:1034F0000C000C20ADF80A0069460020FDF79AFD8B
:103500000748FEF7D9F80748FEF7D6F80648FEF751
:10351000D3F80648FEF7D0F80148FEF7CDF81FBDF6
:103520001C3F0008EC3F0008A83F0008643F00086B
:103530002DE9F04705460E46174698460024FEF74B
:10354000CAFE814610201749086000BF0CE0305DBC
:103550001549888100BF1448008900F00100002847
:10356000F9D011488089641CAC42F0DB00240DE0E6
:1035700018F804000C49888100BF0B48008900F04E
:1035800001000028F9D008488089641CBC42EFD3B0
:1035900010200449091F08604846FEF79BFE0020E2
:1035A000BDE8F087140801400030014008008000A9
:1035B00000010002100000008000000080000000F8
:1035C0008000000001000020000100200040008079
:1035D000080080000400000010000000000100004E
:1035E00000010000000100000001000020000000B8
:1035F00000010000010000200001002000400080C8
:103600000800800000000200060006000600060018
:103610000300060000000D0008000D000E000F0062
:1036200003000700060028001700280028002800D3
:103630000900170000400000000002000400000024
:103640000400000004000000040000000002040068
:10365000000408000000000000000000002F00002F
:1036600000000700070000147F147F1400242A7F45
:103670002A120062640813230036495522500000C4
:103680000503000000001C224100000041221C0034
:103690000014083E08140008083E0808000000A0B6
:1036A00060000008080808080000606000000020B2
:1036B00010080402003E5149453E0000427F400090
:1036C000004261514946002141454B310018141216
:1036D0007F10002745454539003C4A4949300001E3
:1036E0007109050300364949493600064949291E32
:1036F0000000363600000000563600000008142294
:103700004100001414141414000041221408000293
:103710000151090600324959513E007C1211127CB8
:10372000007F49494936003E41414122007F4141E5
:10373000221C007F49494941007F09090901003ED7
:103740004149497A007F0808087F0000417F410015
:10375000002040413F01007F08142241007F40408B
:103760004040007F020C027F007F0408107F003E73
:103770004141413E007F09090906003E4151215E59
:10378000007F091929460046494949310001017F56
:103790000101003F4040403F001F2040201F003FEC
:1037A0004038403F0063140814630007087008079E
:1037B00000615149454300007F41410000552A55B1
:1037C0002A55000041417F0000040201020400402C
:1037D000404040400000010204000020545454784E
:1037E000007F48444438003844444420003844446E
:1037F000487F00385454541800087E09010200180C
:10380000A4A4A47C007F080404780000447D400048
:10381000004080847D00007F102844000000417F2C
:103820004000007C04180478007C08040478003808
:103830004444443800FC242424180018242418FC90
:10384000007C0804040800485454542000043F44F9
:103850004020003C4040207C001C2040201C003CBC
:103860004030403C004428102844001CA0A0A07C0C
:10387000004464544C441414141414140000000044
:10388000000000000000000000000000000000F840
:1038900000000000000000333000000000100C06A3
:1038A000100C0600000000000000000040C078403E
:1038B000C0784000043F04043F040400007088FC0A
:1038C00008300000001820FF211E0000F008F00062
:1038D000E018000000211C031E211E0000F00888D3
:1038E000700000001E2123241927211010160E003D
:1038F000000000000000000000000000000000E0E8
:1039000018040200000000071820400000020418FC
:10391000E00000000040201807000000404080F058
:10392000804040000202010F01020200000000F08E
:10393000000000000101011F010101000000000062
:103940000000000080B070000000000000000000D7
:103950000000000000010101010101010000000060
:1039600000000000003030000000000000000000F7
:1039700080601804006018060100000000E01008D4
:103980000810E000000F102020100F00001010F8A9
:10399000000000000020203F2020000000700808E8
:1039A0000888700000302824222130000030088868
:1039B000884830000018202020110E000000C02090
:1039C00010F8000000070424243F240000F80888B1
:1039D000880808000019212020110E0000E010883E
:1039E00088180000000F112020110E000038080870
:1039F000C83808000000003F000000000070880880
:103A000008887000001C222121221C0000E0100800
:103A10000810E0000000312222110F00000000C059
:103A2000C0000000000000303000000000000080F6
:103A300000000000000080600000000000008040E6
:103A400020100800000102040810200040404040FF
:103A50004040400004040404040404000008102052
:103A60004080000000201008040201000070480897
:103A70000808F0000000003036010000C030C828FF
:103A8000E810E0000718272423140B000000C038BA
:103A9000E0000000203C23020227382008F8888834
:103AA00088700000203F202020110E00C030080840
:103AB00008083800071820202010080008F8080817
:103AC0000810E000203F202020100F0008F8888810
:103AD000E8081000203F20202320180008F88888DC
:103AE000E8081000203F200003000000C030080854
:103AF0000838000007182020221E020008F80800DD
:103B00000008F808203F210101213F20000808F8A3
:103B1000080800000020203F2020000000000808C6
:103B2000F8080800C08080807F00000008F888C086
:103B300028180800203F20012638200008F8080037
:103B400000000000203F20202020300008F8F8006E
:103B5000F8F80800203F003F003F200008F830C080
:103B60000008F808203F200007183F00E010080870
:103B70000810E0000F10202020100F0008F808089F
:103B80000808F000203F210101010000E0100808B2
:103B90000810E0000F18242438504F0008F88888D7
:103BA00088887000203F2000030C302000708808B7
:103BB000080838000038202121221C00180808F8C5
:103BC000080818000000203F2000000008F8080046
:103BD0000008F808001F202020201F000878880017
:103BE00000C83808000007380E010000F80800F887
:103BF0000008F800033C0700073C03000818688031
:103C00008068180820302C03032C30200838C800A6
:103C1000C83808000000203F2000000010080808F5
:103C2000C83808002038262120201800000000FE97
:103C3000020202000000007F40404000000C30C043
:103C400000000000000000010638C000000202026F
:103C5000FE000000004040407F0000000000040221
:103C6000020204000000000000000000000000004C
:103C7000000000008080808080808080000202043C
:103C80000000000000000000000000000000808034
:103C9000808000000019242222223F2008F80080A2
:103CA00080000000003F112020110E000000008065
:103CB00080800000000E11202020110000000080F4
:103CC0008088F800000E112020103F200000808026
:103CD00080800000001F222222221300008080F03A
:103CE000888888180020203F202000000000808065
:103CF00080808000006B94949493600008F80080AA
:103D000080800000203F210000203F200080989804
:103D1000000000000020203F202000000000008064
:103D20009898000000C08080807F000008F80000A4
:103D300080808000203F24022D302000000808F8F9
:103D4000000000000020203F2020000080808080B4
:103D500080808000203F20003F20003F8080008046
:103D600080800000203F210000203F200000808054
:103D700080800000001F202020201F008080008005
:103D80008000000080FFA12020110E0000000080B4
:103D900080808000000E112020A0FF8080808000A5
:103DA0008080800020203F212000010000008080D2
:103DB000808080000033242424241900008080E0C7
:103DC000808000000000001F202000008080000094
:103DD00000808000001F202020103F208080800075
:103DE0000080808000010E30080601008080008085
:103DF000008080800F300C030C300F0000808000AA
:103E0000808080000020312E0E31200080808000D4
:103E10000080808080818E70180601000080808084
:103E2000808080000021302C222130000000000022
:103E3000807C020200000000003F404000000000C3
:103E4000FF00000000000000FF0000000002027CF4
:103E5000800000000040403F00000000000601011B
:103E60000202040400000000000000000000010243
:103E700003040005405C0000A05C0400C06C080066
:103E8000805C0400E03F1E00E07D1E000704000986
:103E90001E08054008260910400856080540082657
:103EA0001D040008BE1D040008BED8BC07A90225D9
:103EB00070889B88401008000A0016000100060068
:103EC0000100020087008D002D001A3152001A33C4
:103ED0009A001A351D011A376B003B31BE003B3387
:103EE0005E013B3596023B37000099599959EB51D9
:103EF0008F421E45142E0080EB51F5283333E13AF2
:103F0000703DE13AC235852BC2353333C235C235F7
:103F1000AE47E13A5138A330513800002F2A2A2AFF
:103F20002A2A2A2A2A2A2A2A2A2A2A2A2A2A2A2AF1
:103F30002A2A2A2A2A2A2A2A2A2A2A2A2A2A2A2AE1
:103F40002A2A2A2A2A2A2A2A2A2A2A2A2A2A2A2AD1
:103F50002A2A2A2A2A2A2A2A2A2A2A2A2A2A2F0ADC
:103F6000000000002F2A2A2A2A2A2A2A2A2A2A2A54
:103F70002A2A2A2A2A2A2A2A2A2A2A2A464D205640
:103F8000657273696F6E2056332E312A2A2A2A2AC7
:103F90002A2A2A2A2A2A2A2A2A2A2A2A2A2A2A2A81
:103FA0002A2A2A2A2A2F0A002F2A2A2A2A2A2A2AB1
:103FB0002A2A2A2A2A2A2A2A2A2A2A2A2A2A2A2A61
:103FC00062706865726F2E636F6D2E636E2A2A2A87
:103FD0002A2A2A2A2A2A2A2A2A2A2A2A2A2A2A2A41
:103FE0002A2A2A2A2A2A2A2F0A0000002F2A2A2AC5
:103FF0002A2A2A2A2A4D6F726520496E666F726DD1
:104000006174696F6E20506C6561736520566973C9
:104010006974204F757220576562736974652A2A26
:104020002A2A2A2A2A2A2A2A2A2A2A2F0A00000089
:1040300050400008000000208C030000E807000842
:104040008C4100088C0300205C070000101700085A
:10405000812008020208020909012521044188275C
:10406000DE5741564521390C4756455741100279D4
:104070001BE2237918CAAA0F0931420215FE791FE3
:10408000AAE00DAAE10DAAE20DAAE30D025BE4AAE3
:10409000010C2C0203040410090607080902040697
:1040A00008ACA24A041C291811141001409A1C04DF
:1040B0001A08042914DA20045A14081A380412447D
:1040C0004928A904111BF010012AFF050215F01B55
:1040D0000F04012AFF0502130F18094040405F55E5
:1040E000555575041A5F0C091121080C11200F0990
:1040F0004989790909090F201F112FFE02424ACA76
:104100004A0304134202FE000E14FF40504C434089
:10411000404F50505C40FF1BF888012AFF050215F4
:10412000F81B1F08012A7F200B109F80E23B808232
:1041300001000916E2A2928A8682808004184080DB
:104140007F172424A4FEA3221B22CCAA0114150845
:104150000601FF2B0104010511FF0202025808109D
:104160001010FF109008C3021108080F10044482B9
:104170007F01808040432C10284681A03201400DF1
:0C418000E2A1C82481232C2E2FA4A6AF9E
:0400000508000131BD
:00000001FF
